:100000000C9457010C9488010C9488010C9488017D
:100010000C9488010C9488010C9488010C9488013C
:100020000C9488010C9488010C9488010C9488012C
:100030000C9488010C9488010C9488010C9488011C
:100040000C9488010C9488010C9488010C9488010C
:100050000C9488010C9488010C9488010C944B0535
:100060000C9488010C9415050C94EB040C948801F5
:100070000C9488010C9488010C9488010C948801DC
:100080000C9488010C9488010C9488010C948801CC
:100090000C9488010C9488010C9488010C948801BC
:1000A0000C9488010C9488010C9488010C948801AC
:1000B0000C9488010C9488010C9488010C9488019C
:1000C0000C9488010C9488010C9488010C9488018C
:1000D0000C9488010C9488010C9488010C9488017C
:1000E0000C9488010C94C6010C94E2020C94E60274
:1000F0000C940F030C9461040C9421030C9495054B
:100100000C9413030C9401030C947F040C943E0490
:100110000C94FC030C941C030C94DC020C946B04F4
:100120000C9417030C94E8010C9420040C944D04D7
:100130000C9475040C94ED030C9434040C94F102AB
:100140000C9457040C9409030C94E5030C941804C4
:100150000C94FB020C948A010C9420020C94B701BD
:100160000C94F7020C94EA020C94EE020C946D02CB
:100170000C94DA010C9406040C94F2030C942A04F7
:100180000C941D030C9405030C9410040000210032
:10019000240027002A002D00300033000101000058
:1001A000040107010A0100002200250028002B009D
:1001B0002E003100340002010000050108010B018E
:1001C000000020002300260029002C002F00320010
:1001D00000010000030106010901050505050705E9
:1001E00008080808020202020A0A080804040404B3
:1001F00001010101010101010303030303030303DF
:10020000040707070C0C0C0C0C0C0C0C020202026D
:1002100006060606060606060B0B0B0B0B0B0B0B56
:100220000102102020080810204010204080020108
:1002300002010804020101020408102040808040ED
:1002400020100804020180040201804020100804EC
:10025000020108040201010204081020408001028A
:1002600004081020408000000A0B02090C0D0E0843
:10027000070304010000000000000000000000006F
:10028000000000000000000000000000000000006E
:10029000000012111000000000000000000000002B
:1002A000000000000000000000000000950511247F
:1002B0001FBECFEFD1E2DEBFCDBF00E00CBF12E02A
:1002C000A0E0B2E0E8E1F1E100E00BBF02C007907E
:1002D0000D92A632B107D9F722E0A6E2B2E001C042
:1002E0001D92A93DB207E1F711E0C7E5D1E000E0BA
:1002F00006C021970109802FFE010E948208C635A1
:10030000D10780E00807A9F70E94DD050C948A0850
:100310000C940000AF92BF92CF92DF92EF92FF92C7
:100320000F931F93CF93DF936C017B018B01040F1D
:10033000151FEB015E01AE18BF08C017D10759F0B9
:100340006991D601ED91FC910190F081E02DC601FB
:100350001995892B79F7C501DF91CF911F910F91E5
:10036000FF90EF90DF90CF90BF90AF900895FC0189
:10037000538D448D252F30E0842F90E0821B930B0A
:10038000541710F0CF96089501970895FC01918DB0
:10039000828D981761F0A28DAE0FBF2FB11D5D96B3
:1003A0008C91928D9F5F9F73928F90E008958FEF55
:1003B0009FEF0895FC01918D828D981731F0828D09
:1003C000E80FF11D858D90E008958FEF9FEF089560
:1003D000FC01918D228D892F90E0805C9F4F821BC4
:1003E00091098F739927089581E392E00E94E801B3
:1003F00021E0892B09F420E0822F0895FC01A48DCF
:10040000A80FB92FB11DA35ABF4F2C91848D90E036
:1004100001968F739927848FA689B7892C93A08919
:10042000B1898C91837080648C93938D848D9813A3
:1004300006C00288F389E02D80818F7D8083089536
:10044000EF92FF920F931F93CF93DF93EC0181E024
:10045000888F9B8D8C8D98131AC0E889F9898081CB
:1004600085FF15C09FB7F894EE89FF896083E889FE
:10047000F98980818370806480839FBF81E090E0F0
:10048000DF91CF911F910F91FF90EF900895F62E7D
:100490000B8D10E00F5F1F4F0F731127E02E8C8D17
:1004A0008E110CC00FB607FCFACFE889F98980815C
:1004B00085FFF5CFCE010E94FE01F1CFEB8DEC0F51
:1004C000FD2FF11DE35AFF4FF0829FB7F8940B8F79
:1004D000EA89FB8980818062CFCFCF93DF93EC01E3
:1004E000888D8823B9F0AA89BB89E889F9898C911C
:1004F00085FD03C0808186FD0DC00FB607FCF7CFD8
:100500008C9185FFF2CF808185FFEDCFCE010E94D7
:10051000FE01E9CFDF91CF91089580E090E0892B33
:1005200029F00E94F40181110E94000080E090E017
:10053000892B49F080E090E0892B29F00E9400008F
:1005400081110E94000080E090E0892B49F080E05A
:1005500090E0892B29F00E94000081110E94000088
:1005600080E090E0892B49F080E090E0892B29F031
:100570000E94000081110C94000008958150823186
:1005800008F05AC0E82FF0E08827E653FD4F8F4F60
:100590000C948208EA02EE02DC02E202E6021C038C
:1005A000F102F702FB020103050309030F03130322
:1005B0001C0317031D032103809180008F77809314
:1005C00080000895809180008F7DF9CF8091800018
:1005D000877FF5CF84B58F7784BD089584B58F7DEF
:1005E000FBCF8091B0008F778093B0000895809109
:1005F000B0008F7DF9CF809190008F77809390002D
:100600000895809190008F7DF9CF80919000877F31
:10061000F5CF8091A0008F778093A00008958091FE
:10062000A0008F7DF9CF8091A000877FF5CF8091CA
:1006300020018F77809320010895809120018F7D84
:10064000F9CF80912001877FF5CFCF93DF93282FBB
:1006500030E0F901EA59FD4F8491F901E05EFD4F68
:10066000D491F901E652FE4FC491CC23A1F081113F
:100670000E94BE02EC2FF0E0EE0FFF1FE054FE4F91
:10068000A591B491EC91ED2381E090E009F480E034
:10069000DF91CF91089580E090E0FACF1F93CF9340
:1006A000DF93282F30E0F901EA59FD4F8491F901D9
:1006B000E05EFD4FD491F901E652FE4FC491CC2388
:1006C000A9F0162F81110E94BE02EC2FF0E0EE0F70
:1006D000FF1FEA55FE4FA591B4918FB7F894EC91A6
:1006E000111108C0D095DE23DC938FBFDF91CF912D
:1006F0001F910895DE2BF8CFCF93DF9390E0FC019C
:10070000E05EFD4F249186529E4FFC018491882328
:10071000D1F090E0880F991FFC01E457FE4FA5919E
:10072000B491FC01EA55FE4FC591D49161110EC000
:100730009FB7F8948C91E22FE0958E238C932881BB
:10074000E223E8839FBFDF91CF9108958FB7F8949C
:10075000EC91E22BEC938FBFF6CF1F93CF93DF93F7
:10076000182FEB0161E00E947C03209739F460E0D0
:10077000812FDF91CF911F910C944E03CF3FD10574
:1007800011F461E0F5CFE12FF0E0EA59FD4FE4917B
:10079000E150E23108F0B3C0F0E08827ED52FC4FA1
:1007A0008F4F0C948208E503ED03F203FC0306046B
:1007B0007F041004180420042A0434043E044D0469
:1007C00057047F0461046B04750484B5806884BD9C
:1007D000C7BDDF91CF911F91089584B5806284BD1C
:1007E000C8BDF7CF80918000806880938000D0934F
:1007F0008900C0938800EDCF809180008062809353
:100800008000D0938B00C0938A00E3CF809180005A
:10081000886080938000D0938D00C0938C00D9CFE6
:100820008091B00080688093B000C093B300D1CFB6
:100830008091B00080628093B000C093B400C9CFB3
:1008400080919000806880939000D0939900C0932D
:100850009800BFCF80919000806280939000D093E9
:100860009B00C0939A00B5CF8091900088608093E0
:100870009000D0939D00C0939C00ABCF8091A000CE
:1008800080688093A0008091A0008F7B8093A0005F
:10089000D093A900C093A8009CCF8091A000806253
:1008A0008093A000D093AB00C093AA0092CF809118
:1008B000A00088608093A000D093AD00C093AC00EE
:1008C00088CF80912001806880932001D0932901F6
:1008D000C09328017ECF8091200180628093200107
:1008E000D0932B01C0932A0174CF8091200188609E
:1008F00080932001D0932D01C0932C016ACFC03882
:10090000D1050CF03ECF33CF3FB7F89480912B0246
:1009100090912C02A0912D02B0912E0226B5A89B99
:1009200005C02F3F19F00196A11DB11D3FBFBA2F81
:10093000A92F982F8827BC01CD01620F711D811D41
:10094000911D42E0660F771F881F991F4A95D1F7C6
:1009500008958F929F92AF92BF92CF92DF92EF92C3
:10096000FF920E9484044B015C0184E1C82ED12CCB
:10097000E12CF12C0E948404681979098A099B09E9
:10098000683E734081059105A8F321E0C21AD108A1
:10099000E108F10888EE880E83E0981EA11CB11CC6
:1009A000C114D104E104F10429F7FF90EF90DF9026
:1009B000CF90BF90AF909F908F900895FC010190D1
:1009C0000020E9F73197AF01481B590BBC0181E3C7
:1009D00092E00C948A011F920F920FB60F9211248D
:1009E0000BB60F922F933F934F935F936F937F9329
:1009F0008F939F93AF93BF93EF93FF9381E392E025
:100A00000E94FE01FF91EF91BF91AF919F918F9155
:100A10007F916F915F914F913F912F910F900BBEFE
:100A20000F900FBE0F901F9018951F920F920FB648
:100A30000F9211240BB60F922F938F939F93EF93E6
:100A4000FF93E0914102F09142028081E0914702E0
:100A5000F091480282FD1DC0908180914A028F5F13
:100A60008F7320914B02821741F0E0914A02F0E02F
:100A7000EF5CFD4F958F80934A02FF91EF919F911C
:100A80008F912F910F900BBE0F900FBE0F901F9064
:100A900018958081F2CF1F920F920FB60F921124FA
:100AA0002F933F938F939F93AF93BF938091270290
:100AB00090912802A0912902B0912A023091260239
:100AC00023E0230F2D3758F50196A11DB11D20936A
:100AD00026028093270290932802A0932902B093C4
:100AE0002A0280912B0290912C02A0912D02B091AC
:100AF0002E020196A11DB11D80932B0290932C0212
:100B0000A0932D02B0932E02BF91AF919F918F9130
:100B10003F912F910F900FBE0F901F90189526E8D0
:100B2000230F0296A11DB11DD2CFCF93DF93E1E336
:100B3000F2E01382128288EE93E0A0E0B0E08483BA
:100B40009583A683B78384E092E09183808385ECCC
:100B500090E09587848784EC90E09787868780EC87
:100B600090E0918B808B81EC90E0938B828B82EC78
:100B700090E0958B848B86EC90E0978B868B118E22
:100B8000128E138E148ECEECD2E086E3888387E338
:100B900089831A8261E086E30E947C0360E0898198
:100BA0000E947C0380E29EE4A0E0B0E08F839887FF
:100BB000A987BA87DF91CF910895CF93DF93CDB7FF
:100BC000DEB7A1970FB6F894DEBF0FBECDBF789405
:100BD00084B5826084BD84B5816084BD85B5826042
:100BE00085BD85B5816085BD80916E0081608093F3
:100BF0006E0010928100809181008260809381005C
:100C0000809181008160809381008091800081606B
:100C1000809380008091B10084608093B1008091C6
:100C2000B00081608093B0008091910082608093D9
:100C3000910080919100816080939100809190005B
:100C40008160809390008091A10082608093A100D8
:100C50008091A10081608093A1008091A0008160BB
:100C60008093A00080912101826080932101809176
:100C70002101816080932101809120018160809316
:100C8000200180917A00846080937A0080917A00BC
:100C9000826080937A0080917A00816080937A00EC
:100CA00080917A00806880937A001092C100E09170
:100CB0004102F091420282E08083E0913D02F09196
:100CC0003E021082E0913F02F09140028FEC80835F
:100CD00010924902E0914502F091460286E080833D
:100CE000E0914302F0914402808180618083E09131
:100CF0004302F0914402808188608083E091430246
:100D0000F0914402808180688083E0914302F091F9
:100D1000440280818F7D808361E086E10E947C03B4
:100D200061E088E10E947C0361E08AE10E947C032B
:100D300061E08CE10E947C0361E08EE10E947C0313
:100D400061E085E00E947C0361E084E00E947C0316
:100D500061E080E20E947C0361E082E20E947C0309
:100D600061E086E20E947C0361E084E20E947C03F1
:100D700083E0682E712C93E2E92EF12C28E3C22E39
:100D8000D12C3AE0832E912CA12CB12C6FEF70E086
:100D900085E00E94AD036FEF70E084E00E94AD0338
:100DA0008091D002882329F061E08091CE020E94D8
:100DB0007C0360E08091CE020E944E03C301019744
:100DC000F1F761E08091CE020E944E03C7010197C6
:100DD000F1F760E08091CE020E944E038091D00234
:100DE000882329F060E08091CE020E947C030E945B
:100DF00084046093D1027093D2028093D3029093C3
:100E0000D4028091CF020E942503892BD9F40E943D
:100E100084040091D1021091D2022091D30230912A
:100E2000D402601B710B820B930B0091D5021091C1
:100E3000D6022091D7023091D8020617170728074B
:100E40003907F8F60E9484046093D1027093D202AD
:100E50008093D3029093D4028091CF020E94250305
:100E6000892BD9F00E9484040091D1021091D20202
:100E70002091D3023091D402601B710B820B930B33
:100E80000091D5021091D6022091D7023091D8025C
:100E90000617170728073907F8F60E9484042091DF
:100EA000D1023091D202CB01821B930BB6010E947A
:100EB0004C087093300260932F0282E192E00E940E
:100EC000DE0420902F0230903002032C000C4408E6
:100ED000550857FE55C06DE281E392E00E94200262
:100EE00022273327A901221933094409550919A2D8
:100EF0008E010F5D1F4FCA01B901A50194010E9427
:100F00006008605DF80162938F012115310541058C
:100F1000510589F70115110519F0C8010E94DE0479
:100F200083E292E00E94DE0480912F0290913002D1
:100F300084369105DCF561E08EE10E944E0360E0AD
:100F400086E10E944E0360E088E10E944E0360E06B
:100F50008AE10E944E0360E08CE10E944E0360E053
:100F600080E20E944E0360E082E20E944E0360E055
:100F700086E20E944E0360E084E20E944E036BC052
:100F8000A201910119A28E010F5D1F4FCA01B90183
:100F9000A50194010E946008605DF80162938F01D1
:100FA000211531054105510589F7B4CF85569109C1
:100FB0008336910508F052C06FEF70E085E00E9423
:100FC000AD036FEF70E084E00E94AD0360E08EE15E
:100FD0000E944E0360E086E10E944E0361E088E1DA
:100FE0000E944E0360E08AE10E944E0361E08CE1C2
:100FF0000E944E0360E080E20E944E0361E082E2C4
:101000000E944E0360E086E20E944E0361E084E2AB
:101010000E944E0310E000E0B80185E00E94AD039D
:10102000B80184E00E94AD030E94A9040F5F1F4F26
:101030000115F1E01F0781F70FEF10E0B80185E01F
:101040000E94AD03B80184E00E94AD030E94A90490
:101050000150110998F70E948D0298CE60E08EE150
:101060000E944E0361E086E10E944E0360E088E149
:101070000E944E0361E08AE10E944E0360E08CE131
:101080000E944E0361E080E20E944E0360E082E233
:101090000E944E0361E06CCFAA1BBB1B51E107C04D
:1010A000AA1FBB1FA617B70710F0A61BB70B881FF8
:1010B000991F5A95A9F780959095BC01CD01089587
:1010C000A1E21A2EAA1BBB1BFD010DC0AA1FBB1F4C
:1010D000EE1FFF1FA217B307E407F50720F0A21BBE
:1010E000B30BE40BF50B661F771F881F991F1A942B
:1010F00069F760957095809590959B01AC01BD0155
:10110000CF010895EE0FFF1F881F8BBF0790F69148
:08111000E02D1994F894FFCFC3
:101118000000000020028A01B7016D02E801C60143
:10112800DA0144697374616E636520696E20434D0A
:061138003A20000D0A0040
:00000001FF
